:100000000C9434000C9451000C9451000C94510049
:100010000C9451000C9451000C9451000C9451001C
:100020000C9451000C9451000C9451000C9451000C
:100030000C9451000C9451000C9451000C945100FC
:100040000C9451000C9451000C9451000C945100EC
:100050000C9451000C9451000C9451000C945100DC
:100060000C9451000C94510011241FBECFEFD8E026
:10007000DEBFCDBF11E0A0E0B1E0E8E9FCE002C0E6
:1000800005900D92AC30B107D9F721E0ACE0B1E0BA
:1000900001C01D92A933B207E1F70E9453000C94EE
:1000A00037060C9400000E945C000E9496000E949B
:1000B00015030E944C02FDCFEAE7F0E080818660E4
:1000C0008083ACE7B0E08C9180648C938081806801
:1000D0008083089590917C00907E90937C00909115
:1000E0007C00892B80937C0080917A0080648093CF
:1000F0007A0080917A0084FFFCCF80917A00806141
:1001000080937A008091780080932E0190917900FD
:1001100090932C01FA01808390912C01FB01908334
:1001200080912E01F90191838083089588E084B93C
:1001300080E48CBD08958EBD0DB407FEFDCF8EB555
:100140000895CF93DF93EC018991811103C0DF9172
:10015000CF9108950E949B00F7CF0F931F93CF93E9
:10016000DF93CDB7DEB7C456D1090FB6F894DEBF22
:100170000FBECDBF9F938F9388E091E09F938F93A5
:100180008E010F5F1F4F1F930F930E946E03C801D4
:100190000E94A1008EB50F900F900F900F900F90BE
:1001A0000F90CC59DF4F0FB6F894DEBF0FBECDBF16
:1001B000DF91CF911F910F910895EF92FF920F93CE
:1001C0001F93CF93DF938C01EB017A0124E231E09E
:1001D00050E040E070E060E080E00E946A008091C2
:1001E000240190912501209104013091050182178D
:1001F000930720F49093050180930401209112014C
:10020000309113012817390720F49093130180933C
:100210001201809104019091050120911201309109
:100220001301820F931F9C01369527953093360159
:1002300020933501F70131832083892F8695F801BA
:100240008083809135018883DF91CF911F910F9139
:10025000FF90EF900895EF92FF920F931F93CF932B
:10026000DF938C01EB017A0122E231E050E040E0C3
:1002700070E060E081E00E946A008091220190912C
:10028000230120910201309103018217930720F48A
:10029000909303018093020120911001309111018C
:1002A0002817390720F49093110180931001809151
:1002B0000201909103012091100130911101820FF0
:1002C000931F9C0136952795309338012093370171
:1002D000F70131832083892F8695F80180838091EF
:1002E00037018883DF91CF911F910F91FF90EF909D
:1002F0000895EF92FF920F931F93CF93DF938C019A
:10030000EB017A0120E231E050E040E070E060E093
:1003100082E00E946A008091200190912101209149
:100320000001309101018217930720F4909301019D
:100330008093000120910E0130910F012817390799
:1003400020F490930F0180930E0180910001909111
:10035000010120910E0130910F01820F931F9C012A
:10036000369527953093340120933301F70131837B
:100370002083892F8695F8018083809133018883BB
:10038000DF91CF911F910F91FF90EF900895EF9221
:10039000FF920F931F93CF93DF93EC018B017A01B0
:1003A00024E231E050E040E070E060E080E00E9454
:1003B0006A0022E231E050E040E070E060E081E07D
:1003C0000E946A0020E231E050E040E070E060E02E
:1003D00082E00E946A0020912401309125018091E1
:1003E0000D01E216F30620F5816080930D018091E6
:1003F0000D01209122013091230102171307D0F43F
:10040000826080930D0180910D0120912001309137
:100410002101C217D30780F4846080930D0180917D
:100420000D01DF91CF911F910F91FF90EF900895F3
:100430008E7FDBCF8D7FE5CF8B7FEFCF813051F08B
:10044000843051F0823051F0873051F0853051F0D6
:1004500085E5089582E508958CE4089589E408957A
:100460008BE2089584E5089550E040E070E060E09C
:1004700090E080E00E94DD0050E040E070E060E04D
:1004800090E080E00E942B0150E040E070E060E0EE
:1004900090E080E00C947901809107010E949B001C
:1004A000809306018331B0F4E82FF0E0E75CF94F68
:1004B0000C94680310920701089530E020E04AE2AE
:1004C00051E070E060E080E00E946A0080912A01C3
:1004D00080930701089530E020E050E040E06BE2B7
:1004E00071E080E00E946A0080912B01F1CF30E042
:1004F00020E048E251E070E060E081E00E946A00A4
:1005000080912801E5CF30E020E050E040E069E252
:1005100071E081E00E946A0080912901D9CF30E02A
:1005200020E046E251E070E060E082E00E946A0074
:1005300080912601CDCF30E020E050E040E067E23E
:1005400071E082E00E946A0080912701C1CF48E1FA
:1005500051E06EE171E090E080E00E94DD0080916A
:100560001E01B6CF48E151E070E060E08FE191E01C
:100570000E94DD0080911F01ABCF46E151E06CE1AC
:1005800071E090E080E00E942B0180911C01A0CFDF
:1005900046E151E070E060E08DE191E00E942B01C6
:1005A00080911D0195CF44E151E06AE171E090E056
:1005B00080E00E94790180911A018ACF44E151E0E4
:1005C00070E060E08BE191E00E94790180911B0175
:1005D0007FCF0E94340281E47BCF0E9434028FE4FB
:1005E00077CF4091180150911901609116017091D7
:1005F000170180911401909115010E94C70168CFE5
:1006000040911801509119016091160170911701E4
:1006100080911401909115010E94C70180930C01F3
:100620000E941E0255CF0C9434021092C50087E63A
:100630008093C40088E18093C10086E08093C2006B
:1006400008958091C00087FFFCCF8091C600089577
:100650009091C00095FFFCCF8093C6000895CF9382
:10066000DF93EC018991811103C0DF91CF9108954F
:100670000E942803F7CF0F931F93CF93DF93CDB73B
:10068000DEB764970FB6F894DEBF0FBECDBF9F9361
:100690008F9388E091E09F938F938E010F5F1F4FA0
:1006A0001F930F930E946E03C8010E942F030F90A7
:1006B0000F900F900F900F900F9064960FB6F894D4
:1006C000DEBF0FBECDBFDF91CF911F910F91089577
:1006D000EE0FFF1F0590F491E02D0994AEE0B0E01D
:1006E000E4E7F3E00C940E060D891E8986E08C8306
:1006F0001A8309838FEF9FE79E838D83AE01475E48
:100700005F4F6F89788DCE0101960E9491032F81F2
:100710003885020F131FF80110822E96E4E00C9426
:100720002A06ABE0B0E0E7E9F3E00C9400067C01B8
:100730003B018A01FC0117821682838181FFB9C1C6
:100740009AE0292ECE0101965C01F7019381F30115
:1007500093FD859193FF81913F01882309F446C160
:10076000853239F493FD859193FF81913F01853264
:1007700029F4B70190E00E947205E7CF912C412C3B
:10078000512CFFE1F51538F08B3209F188F48032F5
:1007900001F1833221F157FC3AC020ED280F2A30B5
:1007A00040F556FE1FC0929C200D1124922E06C0CB
:1007B0008D3291F0803379F7689450F8F30193FD0E
:1007C000859193FF81913F018111DBCF20C0689417
:1007D00051F8689452F8F2CF689453F8EFCF6894C8
:1007E00054F8ECCF429C200D1124422E689455F809
:1007F000E5CF8E3229F456FCF9C0689456F8DECF66
:100800008C3619F4689457F8D9CF8836B9F2982FF6
:100810009F7D95549330C0F08336A1F18337C1F1A9
:10082000833509F05BC0F801C190D1908F01692D2B
:1008300070E056FC02C06FEF7FEFC6010E945C05BE
:100840004C01689457F80AC00C5F1F4F2FE32983AF
:1008500088248394912C6501E89457F853FC04C0D4
:100860004814190409F018F5342C8114910431F559
:10087000332009F46ACFB70180E290E00E9472054C
:100880003A94F6CFF801808189830E5F1F4FE0CF45
:10089000F801C190D1908F01692D70E056FC02C023
:1008A0006FEF7FEFC6010E9467054C01D5CFB701FE
:1008B00080E290E00E9472054A94D2CFF60157FC84
:1008C000859157FE81916F01B70190E00E947205FA
:1008D00031103A94F1E08F1A9108C7CF843619F09D
:1008E000893609F074C0F80157FE6AC061917191B0
:1008F000819191918F01252D2F76D22E97FF09C0DE
:1009000090958095709561957F4F8F4F9F4F68941C
:10091000D7F82AE030E0A5010E94A205C82ECA1827
:100920008C2C5D2CD6FE0CC0E89450F8C91440F411
:10093000D4FE05C0D2FC03C0FD2DFE7E5F2E892CA7
:1009400054FE8FC0FE01EC0DF11D8081803309F053
:1009500081C0252D297E522E852D8870382E53FC7E
:100960008FC050FE89C09C2C841418F44C0C942C1D
:10097000981854FE8BC0B70180E390E00E94720586
:1009800052FE09C088E790E051FE02C088E590E081
:10099000B7010E947205C91408F484C0CA94D12C0E
:1009A0009FEFC91AD90ACA0CDB1CF60182916F01AC
:1009B000B70190E00E947205AC14BD04B1F758CFA6
:1009C00061917191072E000C880B990B93CFD52C58
:1009D000E894D4F82AE030E0853739F1952D997FF5
:1009E000D92E8F3601F148F48835A9F0F7018681B8
:1009F00097812B96E2E10C941C06803749F08837EA
:100A0000A9F7D4FE02C06894D2F820E130E00DC00E
:100A10006894D4F8F6CF54FE03C0E92FE660DE2ECA
:100A200020E132E002C028E030E0F801D7FE0DC03E
:100A300061917191819191918F01A5010E94A2050F
:100A4000C82ECA18E894D7F86BCF6191719190E0E5
:100A500080E0F2CF52FC02C083947ECF83948394D3
:100A60007BCF852D867809F477CFF6CFB70180E26A
:100A700090E00E94720583948414C0F3312C79CFE6
:100A8000342C3818841408F474CFF8CF852D867868
:100A900009F481CF8BE251FE80E257FC8DE2B70171
:100AA00090E077CFB70180E390E00E9472059A94BE
:100AB00072CF8FEF9FEF9DCFFC010590615070408A
:100AC0000110D8F7809590958E0F9F1F0895FC0117
:100AD0006150704001900110D8F7809590958E0F6D
:100AE0009F1F08950F931F93CF93DF93182F092F04
:100AF000EB018B8181FD09C01FEF0FEF812F902F3C
:100B0000DF91CF911F910F91089582FF14C02E8124
:100B10003F818C819D81281739073CF4E881F98158
:100B2000CF0101969983888310838E819F810196DE
:100B30009F838E83E3CFE885F985812F0995892BE3
:100B4000A1F3DACFFA01AA27283051F1203181F13F
:100B5000E8946F936E7F6E5F7F4F8F4F9F4FAF4FC5
:100B6000B1E03ED0B4E03CD0670F781F891F9A1FD8
:100B7000A11D680F791F8A1F911DA11D6A0F711D8C
:100B8000811D911DA11D20D009F468943F912AE098
:100B9000269F11243019305D3193DEF6CF01089580
:100BA000462F4770405D4193B3E00FD0C9F7F6CFB1
:100BB000462F4F70405D4A3318F0495D31FD405279
:100BC000419302D0A9F7EACFB4E0A695979587950F
:100BD00077956795BA95C9F70097610571050895EE
:100BE0009B01AC010A2E069457954795379527959A
:100BF000BA95C9F7620F731F841F951FA01D089532
:100C00002F923F924F925F926F927F928F929F921C
:100C1000AF92BF92CF92DF92EF92FF920F931F930A
:100C2000CF93DF93CDB7DEB7CA1BDB0B0FB6F894BB
:100C3000DEBF0FBECDBF09942A88398848885F84FB
:100C40006E847D848C849B84AA84B984C884DF806C
:100C5000EE80FD800C811B81AA81B981CE0FD11D50
:100C60000FB6F894DEBF0FBECDBFED010895F89426
:100C7000FFCF5A02A702B202BD02C802D302DE02AF
:100C80005D026B02770283028F029B02F1026A020D
:080C900000036A02E902ED0213
:0C0C9800FF03FF03FF0330302564000061
:00000001FF
